S01300004954495F70726F6A6563742E73726563D5
S11300000C942A000C9434000C9434000C943400A6
S11300100C9434000C9434000C9434000C9434008C
S11300200C9434000C9434000C9434000C9434007C
S11300300C9434000C9434000C9434000C9434006C
S11300400C9434000C9434000C9434000C9434005C
S11300500C94340011241FBECFE5D8E0DEBFCDBF21
S11300600E9436000C944E000C9400008FEF87BB66
S11300708FEF88BB2FEF89E698E1215080409040B4
S1130080E1F700C0000018BA2FEF89E698E121508B
S113009080409040E1F700C00000EACFF894FFCF21
S9030000FC
