S01300004954495F70726F6A6563742E73726563D5
S11300000C942A000C943C000C943C000C943C008E
S11300100C943C000C943C000C943C000C943C006C
S11300200C943C000C943C000C943C000C943C005C
S11300300C943C000C943C000C943C000C943C004C
S11300400C943C000C943C000C943C000C943C003C
S11300500C943C0011241FBECFE5D8E0DEBFCDBF19
S113006020E0A0E6B0E001C01D92A036B207E1F79F
S11300700E9435010C947C020C94000080E895E207
S11300800E94440240E060E084E60E943C0141E0BA
S113009061E084E60E943C0141E060E081E60E9468
S11300A03C0141E061E081E60E943C0141E062E004
S11300B081E60E943C0141E063E081E60E943C014C
S11300C040E060E081E60E94AD0140E061E081E64D
S11300D00E94AD0140E062E081E60E94AD0140E093
S11300E063E081E60E94AD0140E060E083E60E94A7
S11300F03C0140E061E083E60E943C0141E060E0B5
S113010082E60E943C0140E064E081E60E943C01FA
S113011041E064E081E60C94AD01CF93DF9300D01D
S11301201F92CDB7DEB719820E942101AE014F5F45
S11301305F4F64E081E60E941E0289818130B9F438
S11301401B821A82AE014D5F5F4F60E083E60E941E
S11301501E02AE014E5F5F4F61E083E60E941E0205
S11301609A818B819817A0F08917A8F017C089810C
S11301708111DCCF0E945602863481F028F4823447
S113018099F60E940D01D2CF8C3429F0823561F6A4
S11301900E94E500CBCF0E94F900C8CF0E94D10095
S11301A0C5CF41E060E081E60E94AD0140E061E03E
S11301B081E60E94AD0141E062E081E60E94AD016A
S11301C040E063E081E60C94AD0141E060E081E64B
S11301D00E94AD0140E061E081E60E94AD0140E093
S11301E062E081E60E94AD0141E063E081E60C94A7
S11301F0AD0140E060E081E60E94AD0141E061E0D4
S113020081E60E94AD0141E062E081E60E94AD0119
S113021040E063E081E60C94AD0140E060E081E6FB
S11302200E94AD0141E061E081E60E94AD0140E041
S113023062E081E60E94AD0141E063E081E60C9456
S1130240AD0140E060E081E60E94AD0140E061E084
S113025081E60E94AD0140E062E081E60E94AD01CA
S113026040E063E081E60C94AD010E943E000E94F0
S11302708D0080E090E00895823619F118F48136FB
S113028039F069C08336B1F1843609F44BC063C0D8
S1130290442361F0413009F05EC02AB381E090E06C
S11302A001C0880F6A95EAF7822B09C02AB381E05E
S11302B090E001C0880F6A95EAF7809582238ABB93
S11302C048C0442361F0413009F045C027B381E0C0
S11302D090E001C0880F6A95EAF7822B09C027B322
S11302E081E090E001C0880F6A95EAF78095822347
S11302F087BB2FC0442359F0413069F524B381E012
S113030090E001C0880F6A95EAF7822B09C024B3F4
S113031081E090E001C0880F6A95EAF78095822316
S113032084BB17C0442359F04130A9F421B381E0C0
S113033090E001C0880F6A95EAF7822B09C021B3C7
S113034081E090E001C0880F6A95EAF780958223E6
S113035081BB80E008958FEF0895823619F118F477
S1130360813639F069C08336B1F1843609F44BC063
S113037063C0442361F0413009F05EC02BB381E0D7
S113038090E001C0880F6A95EAF7822B09C02BB36D
S113039081E090E001C0880F6A95EAF78095822396
S11303A08BBB48C0442361F0413009F045C028B3F9
S11303B081E090E001C0880F6A95EAF7822B09C0BA
S11303C028B381E090E001C0880F6A95EAF7809530
S11303D0822388BB2FC0442359F0413069F525B3EB
S11303E081E090E001C0880F6A95EAF7822B09C08A
S11303F025B381E090E001C0880F6A95EAF7809503
S1130400822385BB17C0442359F04130A9F422B399
S113041081E090E001C0880F6A95EAF7822B09C059
S113042022B381E090E001C0880F6A95EAF78095D5
S1130430822382BB80E008958FEF0895FA0182360B
S113044059F020F48136F1F429B309C0833631F030
S11304508436C1F420B303C026B301C023B381E0C2
S113046090E0062E02C0880F991F0A94E2F730E04C
S11304708223932302C0959587956A95E2F780833A
S113048080E008958FEF08959C0140E050E060E41F
S113049072E48FE090E00E945A022150310930BD8D
S11304A029B988E18AB986E880BD08955F9BFECFAB
S11304B08CB10895A1E21A2EAA1BBB1BFD010DC02D
S11304C0AA1FBB1FEE1FFF1FA217B307E407F50700
S11304D020F0A21BB30BE40BF50B661F771F881FDC
S11304E0991F1A9469F760957095809590959B0172
S10F04F0AC01BD01CF010895F894FFCFCA
S9030000FC
